<pre>
  BIP: 143
  Title: Transaction Signature Verification for Version 0 Witness Program
  Author: Johnson Lau <jl2012@xbt.hk>
          Pieter Wuille <pieter.wuille@gmail.com>
  Status: Draft
  Type: Standards Track
  Created: 2016-01-03
</pre>

== Abstract ==
This proposal defines a new transaction digest algorithm for signature verification in version 0 witness program, in order to minimize redundant data hashing in verification, and to cover the input value by the signature.

== Motivation ==
There are 4 ECDSA signature verification codes in the original Bitcoin script system: CHECKSIG, CHECKSIGVERIFY, CHECKMULTISIG, CHECKMULTISIGVERIFY (“sigops”). According to the sighash type (ALL, NONE, SINGLE, ANYONECANPAY), a transaction digest is generated with a double SHA256 of a serialized subset of the transaction, and the signature is verified against this digest with a given public key. The detailed procedure is described in a Bitcoin Wiki article. <ref name=wiki>[https://en.bitcoin.it/wiki/OP_CHECKSIG]</ref>

Unfortunately, there are at least 2 weaknesses in the original SignatureHash transaction digest algorithm:

* For the verification of each signature, the amount of data hashing is proportional to the size of the transaction. Therefore, data hashing grows in O(n<sup>2</sup>) as the number of sigops in a transaction increases. While a 1 MB block would normally take 2 seconds to verify with an average computer in 2015, a 1MB transaction with 5569 sigops may take 25 seconds to verify. This could be fixed by optimizing the digest algorithm by introducing some reusable “midstate”, so the time complexity becomes O(n). <ref>[https://web.nvd.nist.gov/view/vuln/detail?vulnId=CVE-2013-2292 CVE-2013-2292]</ref><ref>[https://bitcointalk.org/?topic=140078 New Bitcoin vulnerability: A transaction that takes at least 3 minutes to verify]</ref><ref>[http://rusty.ozlabs.org/?p=522 The Megatransaction: Why Does It Take 25 Seconds?]</ref>
* The algorithm does not involve the amount of Bitcoin being spent by the input. This is usually not a problem for online network nodes as they could request for the specified transaction to acquire the output value. For an offline transaction signing device ("cold wallet"), however, the unknowing of input amount makes it impossible to calculate the exact amount being spent and the transaction fee. To cope with this problem a cold wallet must also acquire the full transaction being spent, which could be a big obstacle in the implementation of lightweight, air-gapped wallet. By including the input value of part of the transaction digest, a cold wallet may safely sign a transaction by learning the value from an untrusted source. In the case that a wrong value is provided and signed, the signature would be invalid and no funding might be lost. <ref>[https://bitcointalk.org/index.php?topic=181734.0 SIGHASH_WITHINPUTVALUE: Super-lightweight HW wallets and offline data]</ref>

Deploying the aforementioned fixes in the original script system is not a simple task. That would be either a hardfork, or a softfork for new sigops without the ability to remove or insert stack items. However, the introduction of segregated witness softfork offers an opportunity to define a different set of script semantics without disrupting the original system, as the unupgraded nodes would always consider such a transaction output is spendable by arbitrary signature or no signature at all. <ref>[https://github.com/bitcoin/bips/blob/master/bip-0141.mediawiki BIP141: Segregated Witness (Consensus layer)]</ref>

== Specification ==
A new transaction digest algorithm is defined, but only applicable to sigops in version 0 witness program:
  Double SHA256 of the serialization of:
     1. nVersion of the transaction (4-byte little endian)
     2. hashPrevouts (32-byte hash)
     3. hashSequence (32-byte hash)
     4. outpoint (32-byte hash + 4-byte little endian) 
     5. scriptCode of the input (serialized as scripts inside CTxOuts)
     6. value of the output spent by this input (8-byte little endian)
     7. nSequence of the input (4-byte little endian)
     8. hashOutputs (32-byte hash)
     9. nLocktime of the transaction (4-byte little endian)
    10. sighash type of the signature (4-byte little endian)

Semantics of the original sighash types remain unchanged, except the followings:
# The way of serialization is changed;
# All sighash types commit to the amount being spent by the signed input;
# <code>FindAndDelete</code> of the signature is not applied to the <code>scriptCode</code>;
# <code>SINGLE</code> does not commit to the input index. When <code>ANYONECANPAY</code> is not set, the semantics are unchanged since <code>hashPrevouts</code> and <code>outpoint</code> together implictly commit to the input index. When <code>SINGLE</code> is used with <code>ANYONECANPAY</code>, omission of the index commitment allows permutation of the input-output pairs, as long as each pair is located at an equivalent index.

The items 1, 4, 7, 9, 10 have the same meaning as the original algorithm. <ref name=wiki></ref>

The item 5:
*For P2WPKH witness program, the scriptCode is <code>0x1976a914{20-byte-pubkey-hash}88ac</code>.
*For P2WSH witness program,
**if the <code>witnessScript</code> does not contain any <code>OP_CODESEPERATOR</code>, the <code>scriptCode</code> is the <code>witnessScript</code> serialized as scripts inside CTxOuts.
**if the <code>witnessScript</code> contains any <code>OP_CODESEPERATOR</code>, the <code>scriptCode</code> is the evaluated script, with all <code>OP_CODESEPARATOR</code> and everything up to the last <code>OP_CODESEPARATOR</code> before the signature checking opcode being executed removed, serialized as scripts inside CTxOuts.

The item 6 is a 8-byte value of the amount of bitcoin spent in this input.

<code>hashPrevouts</code>:
*If the <code>ANYONECANPAY</code> flag is not set, <code>hashPrevouts</code> is the double SHA256 of the serialization of all input outpoints;
*Otherwise, <code>hashPrevouts</code> is a <code>uint256</code> of <code>0x0000......0000</code>.

<code>hashSequence</code>:
*If none of the <code>ANYONECANPAY</code>, <code>SINGLE</code>, <code>NONE</code> sighash type is set, <code>hashSequence</code> is the double SHA256 of the serialization of <code>nSequence</code> of all inputs;
*Otherwise, <code>hashSequence</code> is a <code>uint256</code> of <code>0x0000......0000</code>.

<code>hashOutputs</code>:
*If the sighash type is neither <code>SINGLE</code> nor <code>NONE</code>, <code>hashOutputs</code> is the double SHA256 of the serialization of all output value (8-byte little endian) with <code>scriptPubKey</code> (serialized as scripts inside CTxOuts);
*If sighash type is <code>SINGLE</code> and the input index is not greater than the number of outputs, <code>hashOutputs</code> is the double SHA256 of the output value with <code>scriptPubKey</code> of the same index as the input;
*Otherwise, <code>hashOutputs</code> is a <code>uint256</code> of <code>0x0000......0000</code>.<ref>In the original algorithm, a <code>uint256</code> of <code>0x0000......0001</code> is commited if the input index for a <code>SINGLE</code> signature is greater than the number of outputs. In this BIP a <code>0x0000......0000</code> is commited, without changing the semantics.</ref>

The <code>hashPrevouts</code>, <code>hashSequence</code>, and <code>hashOutputs</code> calculated in an earlier verification may be reused in other inputs of the same transaction, so that the time complexity of the whole hashing process reduces from O(n<sup>2</sup>) to O(n).

Refer to the reference implementation, reproduced below, for the precise algorithm:

<source lang="cpp">
  uint256 hashPrevouts;
  uint256 hashSequence;
  uint256 hashOutputs;
  
  if (!(nHashType & SIGHASH_ANYONECANPAY)) {
      CHashWriter ss(SER_GETHASH, 0);
      for (unsigned int n = 0; n < txTo.vin.size(); n++) {
          ss << txTo.vin[n].prevout;
      }
      hashPrevouts = ss.GetHash();
  }
  
  if (!(nHashType & SIGHASH_ANYONECANPAY) && (nHashType & 0x1f) != SIGHASH_SINGLE && (nHashType & 0x1f) != SIGHASH_NONE) {
      CHashWriter ss(SER_GETHASH, 0);
      for (unsigned int n = 0; n < txTo.vin.size(); n++) {
          ss << txTo.vin[n].nSequence;
      }
      hashSequence = ss.GetHash();
  }
  
  if ((nHashType & 0x1f) != SIGHASH_SINGLE && (nHashType & 0x1f) != SIGHASH_NONE) {
      CHashWriter ss(SER_GETHASH, 0);
      for (unsigned int n = 0; n < txTo.vout.size(); n++) {
          ss << txTo.vout[n];
      }
      hashOutputs = ss.GetHash();
  } else if ((nHashType & 0x1f) == SIGHASH_SINGLE && nIn < txTo.vout.size()) {
      CHashWriter ss(SER_GETHASH, 0);
      ss << txTo.vout[nIn];
      hashOutputs = ss.GetHash();
  }
  
  CHashWriter ss(SER_GETHASH, 0);
  // Version
  ss << txTo.nVersion;
  // Input prevouts/nSequence (none/all, depending on flags)
  ss << hashPrevouts;
  ss << hashSequence;
  // The input being signed (replacing the scriptSig with scriptCode + amount)
  // The prevout may already be contained in hashPrevout, and the nSequence
  // may already be contain in hashSequence.
  ss << txTo.vin[nIn].prevout;
  ss << static_cast<const CScriptBase&>(scriptCode);
  ss << amount;
  ss << txTo.vin[nIn].nSequence;
  // Outputs (none/one/all, depending on flags)
  ss << hashOutputs;
  // Locktime
  ss << txTo.nLockTime;
  // Sighash type
  ss << nHashType;
  
  return ss.GetHash();
</source>

== Example ==
=== Native P2WPKH ===
  
  The following is an unsigned transaction:
    0100000002fff7f7881a8099afa6940d42d1e7f6362bec38171ea3edf433541db4e4ad969f0000000000eeffffffef51e1b804cc89d182d279655c3aa89e815b1b309fe287d9b2b55d57b90ec68a0100000000ffffffff02202cb206000000001976a9148280b37df378db99f66f85c95a783a76ac7a6d5988ac9093510d000000001976a9143bde42dbee7e4dbe6a21b2d50ce2f0167faa815988ac11000000
    
    nVersion:  01000000
    txin:      02 fff7f7881a8099afa6940d42d1e7f6362bec38171ea3edf433541db4e4ad969f 00000000 00 eeffffff
                  ef51e1b804cc89d182d279655c3aa89e815b1b309fe287d9b2b55d57b90ec68a 01000000 00 ffffffff
    txout:     02 202cb20600000000 1976a9148280b37df378db99f66f85c95a783a76ac7a6d5988ac
                  9093510d00000000 1976a9143bde42dbee7e4dbe6a21b2d50ce2f0167faa815988ac
    nLockTime: 11000000
  
  The first input comes from an ordinary P2PK:
    scriptPubKey: 2103c9f4836b9a4f77fc0d81f7bcb01b7f1b35916864b9476c241ce9fc198bd25432ac value: 6.25
    
  The second input comes from a P2WPKH witness program:
    scriptPubKey : 00141d0f172a0ecb48aee1be1f2687d2963ae33f71a1, value: 6
    private key  : 619c335025c7f4012e556c2a58b2506e30b8511b53ade95ea316fd8c3286feb9
    public key   : 025476c2e83188368da1ff3e292e7acafcdb3566bb0ad253f62fc70f07aeee6357
    
  To sign it with a nHashType of 1 (SIGHASH_ALL):
  
  hashPrevouts:
    dSHA256(fff7f7881a8099afa6940d42d1e7f6362bec38171ea3edf433541db4e4ad969f00000000ef51e1b804cc89d182d279655c3aa89e815b1b309fe287d9b2b55d57b90ec68a01000000)
  = 96b827c8483d4e9b96712b6713a7b68d6e8003a781feba36c31143470b4efd37
  
  hashSequence:
    dSHA256(eeffffffffffffff)
  = 52b0a642eea2fb7ae638c36f6252b6750293dbe574a806984b8e4d8548339a3b
  
  hashOutputs:
    dSHA256(202cb206000000001976a9148280b37df378db99f66f85c95a783a76ac7a6d5988ac9093510d000000001976a9143bde42dbee7e4dbe6a21b2d50ce2f0167faa815988ac)
  = 863ef3e1a92afbfdb97f31ad0fc7683ee943e9abcf2501590ff8f6551f47e5e5
  
  hash preimage: 0100000096b827c8483d4e9b96712b6713a7b68d6e8003a781feba36c31143470b4efd3752b0a642eea2fb7ae638c36f6252b6750293dbe574a806984b8e4d8548339a3bef51e1b804cc89d182d279655c3aa89e815b1b309fe287d9b2b55d57b90ec68a010000001976a9141d0f172a0ecb48aee1be1f2687d2963ae33f71a188ac0046c32300000000ffffffff863ef3e1a92afbfdb97f31ad0fc7683ee943e9abcf2501590ff8f6551f47e5e51100000001000000
  
    nVersion:     01000000
    hashPrevouts: 96b827c8483d4e9b96712b6713a7b68d6e8003a781feba36c31143470b4efd37
    hashSequence: 52b0a642eea2fb7ae638c36f6252b6750293dbe574a806984b8e4d8548339a3b
    outpoint:     ef51e1b804cc89d182d279655c3aa89e815b1b309fe287d9b2b55d57b90ec68a01000000
    scriptCode:   1976a9141d0f172a0ecb48aee1be1f2687d2963ae33f71a188ac
    amount:       0046c32300000000
    nSequence:    ffffffff
    hashOutputs:  863ef3e1a92afbfdb97f31ad0fc7683ee943e9abcf2501590ff8f6551f47e5e5
    nLockTime:    11000000
    nHashType:    01000000
    
  sigHash:      c37af31116d1b27caf68aae9e3ac82f1477929014d5b917657d0eb49478cb670
  signature:    304402203609e17b84f6a7d30c80bfa610b5b4542f32a8a0d5447a12fb1366d7f01cc44a0220573a954c4518331561406f90300e8f3358f51928d43c212a8caed02de67eebee
    
  The serialized signed transaction is: 01000000000102fff7f7881a8099afa6940d42d1e7f6362bec38171ea3edf433541db4e4ad969f00000000494830450221008b9d1dc26ba6a9cb62127b02742fa9d754cd3bebf337f7a55d114c8e5cdd30be022040529b194ba3f9281a99f2b1c0a19c0489bc22ede944ccf4ecbab4cc618ef3ed01eeffffffef51e1b804cc89d182d279655c3aa89e815b1b309fe287d9b2b55d57b90ec68a0100000000ffffffff02202cb206000000001976a9148280b37df378db99f66f85c95a783a76ac7a6d5988ac9093510d000000001976a9143bde42dbee7e4dbe6a21b2d50ce2f0167faa815988ac000247304402203609e17b84f6a7d30c80bfa610b5b4542f32a8a0d5447a12fb1366d7f01cc44a0220573a954c4518331561406f90300e8f3358f51928d43c212a8caed02de67eebee0121025476c2e83188368da1ff3e292e7acafcdb3566bb0ad253f62fc70f07aeee635711000000
  
    nVersion:  01000000
    marker:    00
    flag:      01
    txin:      02 fff7f7881a8099afa6940d42d1e7f6362bec38171ea3edf433541db4e4ad969f 00000000 494830450221008b9d1dc26ba6a9cb62127b02742fa9d754cd3bebf337f7a55d114c8e5cdd30be022040529b194ba3f9281a99f2b1c0a19c0489bc22ede944ccf4ecbab4cc618ef3ed01 eeffffff
                  ef51e1b804cc89d182d279655c3aa89e815b1b309fe287d9b2b55d57b90ec68a 01000000 00 ffffffff
    txout:     02 202cb20600000000 1976a9148280b37df378db99f66f85c95a783a76ac7a6d5988ac
                  9093510d00000000 1976a9143bde42dbee7e4dbe6a21b2d50ce2f0167faa815988ac
    witness    00
               02 47304402203609e17b84f6a7d30c80bfa610b5b4542f32a8a0d5447a12fb1366d7f01cc44a0220573a954c4518331561406f90300e8f3358f51928d43c212a8caed02de67eebee01 21025476c2e83188368da1ff3e292e7acafcdb3566bb0ad253f62fc70f07aeee6357
    nLockTime: 11000000

=== P2SH-P2WPKH ===
  
  
  The following is an unsigned transaction: 0100000001db6b1b20aa0fd7b23880be2ecbd4a98130974cf4748fb66092ac4d3ceb1a54770100000000feffffff02b8b4eb0b000000001976a914a457b684d7f0d539a46a45bbc043f35b59d0d96388ac0008af2f000000001976a914fd270b1ee6abcaea97fea7ad0402e8bd8ad6d77c88ac92040000
  
    nVersion:  01000000
    txin:      01 db6b1b20aa0fd7b23880be2ecbd4a98130974cf4748fb66092ac4d3ceb1a5477 01000000 00 feffffff
    txout:     02 b8b4eb0b00000000 1976a914a457b684d7f0d539a46a45bbc043f35b59d0d96388ac
                  0008af2f00000000 1976a914fd270b1ee6abcaea97fea7ad0402e8bd8ad6d77c88ac
    nLockTime: 92040000
  
  The input comes from a P2SH-P2WPKH witness program:
    scriptPubKey : a9144733f37cf4db86fbc2efed2500b4f4e49f31202387, value: 10
    redeemScript : 001479091972186c449eb1ded22b78e40d009bdf0089
    private key  : eb696a065ef48a2192da5b28b694f87544b30fae8327c4510137a922f32c6dcf
    public key   : 03ad1d8e89212f0b92c74d23bb710c00662ad1470198ac48c43f7d6f93a2a26873
  
  To sign it with a nHashType of 1 (SIGHASH_ALL):
  
  hashPrevouts:
    dSHA256(db6b1b20aa0fd7b23880be2ecbd4a98130974cf4748fb66092ac4d3ceb1a547701000000)
  = b0287b4a252ac05af83d2dcef00ba313af78a3e9c329afa216eb3aa2a7b4613a
  
  hashSequence:
    dSHA256(feffffff)
  = 18606b350cd8bf565266bc352f0caddcf01e8fa789dd8a15386327cf8cabe198
  
  hashOutputs:
    dSHA256(b8b4eb0b000000001976a914a457b684d7f0d539a46a45bbc043f35b59d0d96388ac0008af2f000000001976a914fd270b1ee6abcaea97fea7ad0402e8bd8ad6d77c88ac)
  = de984f44532e2173ca0d64314fcefe6d30da6f8cf27bafa706da61df8a226c83
  
  hash preimage: 01000000b0287b4a252ac05af83d2dcef00ba313af78a3e9c329afa216eb3aa2a7b4613a18606b350cd8bf565266bc352f0caddcf01e8fa789dd8a15386327cf8cabe198db6b1b20aa0fd7b23880be2ecbd4a98130974cf4748fb66092ac4d3ceb1a5477010000001976a91479091972186c449eb1ded22b78e40d009bdf008988ac00ca9a3b00000000feffffffde984f44532e2173ca0d64314fcefe6d30da6f8cf27bafa706da61df8a226c839204000001000000
  
    nVersion:     01000000
    hashPrevouts: b0287b4a252ac05af83d2dcef00ba313af78a3e9c329afa216eb3aa2a7b4613a
    hashSequence: 18606b350cd8bf565266bc352f0caddcf01e8fa789dd8a15386327cf8cabe198
    outpoint:     db6b1b20aa0fd7b23880be2ecbd4a98130974cf4748fb66092ac4d3ceb1a547701000000
    scriptCode:   1976a91479091972186c449eb1ded22b78e40d009bdf008988ac
    amount:       00ca9a3b00000000
    nSequence:    feffffff
    hashOutputs:  de984f44532e2173ca0d64314fcefe6d30da6f8cf27bafa706da61df8a226c83
    nLockTime:    92040000
    nHashType:    01000000
  
  sigHash:      64f3b0f4dd2bb3aa1ce8566d220cc74dda9df97d8490cc81d89d735c92e59fb6
  signature:    3044022047ac8e878352d3ebbde1c94ce3a10d057c24175747116f8288e5d794d12d482f0220217f36a485cae903c713331d877c1f64677e3622ad4010726870540656fe9dcb01
  
  The serialized signed transaction is: 01000000000101db6b1b20aa0fd7b23880be2ecbd4a98130974cf4748fb66092ac4d3ceb1a5477010000001716001479091972186c449eb1ded22b78e40d009bdf0089feffffff02b8b4eb0b000000001976a914a457b684d7f0d539a46a45bbc043f35b59d0d96388ac0008af2f000000001976a914fd270b1ee6abcaea97fea7ad0402e8bd8ad6d77c88ac02473044022047ac8e878352d3ebbde1c94ce3a10d057c24175747116f8288e5d794d12d482f0220217f36a485cae903c713331d877c1f64677e3622ad4010726870540656fe9dcb012103ad1d8e89212f0b92c74d23bb710c00662ad1470198ac48c43f7d6f93a2a2687392040000
    nVersion:  01000000
    marker:    00
    flag:      01
    txin:      01 db6b1b20aa0fd7b23880be2ecbd4a98130974cf4748fb66092ac4d3ceb1a5477 01000000 1716001479091972186c449eb1ded22b78e40d009bdf0089 feffffff
    txout:     02 b8b4eb0b00000000 1976a914a457b684d7f0d539a46a45bbc043f35b59d0d96388ac
                  0008af2f00000000 1976a914fd270b1ee6abcaea97fea7ad0402e8bd8ad6d77c88ac
    witness    02 473044022047ac8e878352d3ebbde1c94ce3a10d057c24175747116f8288e5d794d12d482f0220217f36a485cae903c713331d877c1f64677e3622ad4010726870540656fe9dcb01 2103ad1d8e89212f0b92c74d23bb710c00662ad1470198ac48c43f7d6f93a2a26873
    nLockTime: 92040000

=== P2SH-P2WSH ===
  
  
  The following is an unsigned transaction: 010000000136641869ca081e70f394c6948e8af409e18b619df2ed74aa106c1ca29787b96e0100000000ffffffff0200e9a435000000001976a914389ffce9cd9ae88dcc0631e88a821ffdbe9bfe2688acc0832f05000000001976a9147480a33f950689af511e6e84c138dbbd3c3ee41588ac00000000
  
    nVersion:  01000000
    txin:      01 36641869ca081e70f394c6948e8af409e18b619df2ed74aa106c1ca29787b96e 01000000 00 ffffffff
    txout:     02 00e9a43500000000 1976a914389ffce9cd9ae88dcc0631e88a821ffdbe9bfe2688ac
                  c0832f0500000000 1976a9147480a33f950689af511e6e84c138dbbd3c3ee41588ac
    nLockTime: 00000000
  
  The input comes from a P2SH-P2WSH 6-of-6 multisig witness program:
    scriptPubKey : a9149993a429037b5d912407a71c252019287b8d27a587, value: 9.87654321
    redeemScript : 0020a16b5755f7f6f96dbd65f5f0d6ab9418b89af4b1f14a1bb8a09062c35f0dcb54
    witnessScript: 56210307b8ae49ac90a048e9b53357a2354b3334e9c8bee813ecb98e99a7e07e8c3ba32103b28f0c28bfab54554ae8c658ac5c3e0ce6e79ad336331f78c428dd43eea8449b21034b8113d703413d57761b8b9781957b8c0ac1dfe69f492580ca4195f50376ba4a21033400f6afecb833092a9a21cfdf1ed1376e58c5d1f47de74683123987e967a8f42103a6d48b1131e94ba04d9737d61acdaa1322008af9602b3b14862c07a1789aac162102d8b661b0b3302ee2f162b09e07a55ad5dfbe673a9f01d9f0c19617681024306b56ae
  
  hashPrevouts:
    dSHA256(36641869ca081e70f394c6948e8af409e18b619df2ed74aa106c1ca29787b96e01000000)
  = 74afdc312af5183c4198a40ca3c1a275b485496dd3929bca388c4b5e31f7aaa0
  
  hashSequence:
    dSHA256(ffffffff)
  = 3bb13029ce7b1f559ef5e747fcac439f1455a2ec7c5f09b72290795e70665044
  
  hashOutputs:
    dSHA256(00e9a435000000001976a914389ffce9cd9ae88dcc0631e88a821ffdbe9bfe2688acc0832f05000000001976a9147480a33f950689af511e6e84c138dbbd3c3ee41588ac)
  = bc4d309071414bed932f98832b27b4d76dad7e6c1346f487a8fdbb8eb90307cc
  
  hash preimage for ALL: 0100000074afdc312af5183c4198a40ca3c1a275b485496dd3929bca388c4b5e31f7aaa03bb13029ce7b1f559ef5e747fcac439f1455a2ec7c5f09b72290795e7066504436641869ca081e70f394c6948e8af409e18b619df2ed74aa106c1ca29787b96e01000000cf56210307b8ae49ac90a048e9b53357a2354b3334e9c8bee813ecb98e99a7e07e8c3ba32103b28f0c28bfab54554ae8c658ac5c3e0ce6e79ad336331f78c428dd43eea8449b21034b8113d703413d57761b8b9781957b8c0ac1dfe69f492580ca4195f50376ba4a21033400f6afecb833092a9a21cfdf1ed1376e58c5d1f47de74683123987e967a8f42103a6d48b1131e94ba04d9737d61acdaa1322008af9602b3b14862c07a1789aac162102d8b661b0b3302ee2f162b09e07a55ad5dfbe673a9f01d9f0c19617681024306b56aeb168de3a00000000ffffffffbc4d309071414bed932f98832b27b4d76dad7e6c1346f487a8fdbb8eb90307cc0000000001000000
    nVersion:     01000000
    hashPrevouts: 74afdc312af5183c4198a40ca3c1a275b485496dd3929bca388c4b5e31f7aaa0
    hashSequence: 3bb13029ce7b1f559ef5e747fcac439f1455a2ec7c5f09b72290795e70665044
    outpoint:     36641869ca081e70f394c6948e8af409e18b619df2ed74aa106c1ca29787b96e01000000
    scriptCode:   cf56210307b8ae49ac90a048e9b53357a2354b3334e9c8bee813ecb98e99a7e07e8c3ba32103b28f0c28bfab54554ae8c658ac5c3e0ce6e79ad336331f78c428dd43eea8449b21034b8113d703413d57761b8b9781957b8c0ac1dfe69f492580ca4195f50376ba4a21033400f6afecb833092a9a21cfdf1ed1376e58c5d1f47de74683123987e967a8f42103a6d48b1131e94ba04d9737d61acdaa1322008af9602b3b14862c07a1789aac162102d8b661b0b3302ee2f162b09e07a55ad5dfbe673a9f01d9f0c19617681024306b56ae
    amount:       b168de3a00000000
    nSequence:    ffffffff
    hashOutputs:  bc4d309071414bed932f98832b27b4d76dad7e6c1346f487a8fdbb8eb90307cc
    nLockTime:    00000000
    nHashType:    01000000
  sigHash:      185c0be5263dce5b4bb50a047973c1b6272bfbd0103a89444597dc40b248ee7c
  public key:   0307b8ae49ac90a048e9b53357a2354b3334e9c8bee813ecb98e99a7e07e8c3ba3
  signature:    304402206ac44d672dac41f9b00e28f4df20c52eeb087207e8d758d76d92c6fab3b73e2b0220367750dbbe19290069cba53d096f44530e4f98acaa594810388cf7409a1870ce01
  
  hash preimage for NONE: 0100000074afdc312af5183c4198a40ca3c1a275b485496dd3929bca388c4b5e31f7aaa0000000000000000000000000000000000000000000000000000000000000000036641869ca081e70f394c6948e8af409e18b619df2ed74aa106c1ca29787b96e01000000cf56210307b8ae49ac90a048e9b53357a2354b3334e9c8bee813ecb98e99a7e07e8c3ba32103b28f0c28bfab54554ae8c658ac5c3e0ce6e79ad336331f78c428dd43eea8449b21034b8113d703413d57761b8b9781957b8c0ac1dfe69f492580ca4195f50376ba4a21033400f6afecb833092a9a21cfdf1ed1376e58c5d1f47de74683123987e967a8f42103a6d48b1131e94ba04d9737d61acdaa1322008af9602b3b14862c07a1789aac162102d8b661b0b3302ee2f162b09e07a55ad5dfbe673a9f01d9f0c19617681024306b56aeb168de3a00000000ffffffff00000000000000000000000000000000000000000000000000000000000000000000000002000000
    nVersion:     01000000
    hashPrevouts: 74afdc312af5183c4198a40ca3c1a275b485496dd3929bca388c4b5e31f7aaa0
    hashSequence: 0000000000000000000000000000000000000000000000000000000000000000
    outpoint:     36641869ca081e70f394c6948e8af409e18b619df2ed74aa106c1ca29787b96e01000000
    scriptCode:   cf56210307b8ae49ac90a048e9b53357a2354b3334e9c8bee813ecb98e99a7e07e8c3ba32103b28f0c28bfab54554ae8c658ac5c3e0ce6e79ad336331f78c428dd43eea8449b21034b8113d703413d57761b8b9781957b8c0ac1dfe69f492580ca4195f50376ba4a21033400f6afecb833092a9a21cfdf1ed1376e58c5d1f47de74683123987e967a8f42103a6d48b1131e94ba04d9737d61acdaa1322008af9602b3b14862c07a1789aac162102d8b661b0b3302ee2f162b09e07a55ad5dfbe673a9f01d9f0c19617681024306b56ae
    amount:       b168de3a00000000
    nSequence:    ffffffff
    hashOutputs:  0000000000000000000000000000000000000000000000000000000000000000
    nLockTime:    00000000
    nHashType:    02000000
  sigHash:        e9733bc60ea13c95c6527066bb975a2ff29a925e80aa14c213f686cbae5d2f36
  public key:     03b28f0c28bfab54554ae8c658ac5c3e0ce6e79ad336331f78c428dd43eea8449b
  signature:      3044022068c7946a43232757cbdf9176f009a928e1cd9a1a8c212f15c1e11ac9f2925d9002205b75f937ff2f9f3c1246e547e54f62e027f64eefa2695578cc6432cdabce271502
  
  hash preimage for SINGLE: 0100000074afdc312af5183c4198a40ca3c1a275b485496dd3929bca388c4b5e31f7aaa0000000000000000000000000000000000000000000000000000000000000000036641869ca081e70f394c6948e8af409e18b619df2ed74aa106c1ca29787b96e01000000cf56210307b8ae49ac90a048e9b53357a2354b3334e9c8bee813ecb98e99a7e07e8c3ba32103b28f0c28bfab54554ae8c658ac5c3e0ce6e79ad336331f78c428dd43eea8449b21034b8113d703413d57761b8b9781957b8c0ac1dfe69f492580ca4195f50376ba4a21033400f6afecb833092a9a21cfdf1ed1376e58c5d1f47de74683123987e967a8f42103a6d48b1131e94ba04d9737d61acdaa1322008af9602b3b14862c07a1789aac162102d8b661b0b3302ee2f162b09e07a55ad5dfbe673a9f01d9f0c19617681024306b56aeb168de3a00000000ffffffff9efe0c13a6b16c14a41b04ebe6a63f419bdacb2f8705b494a43063ca3cd4f7080000000003000000
    nVersion:     01000000
    hashPrevouts: 74afdc312af5183c4198a40ca3c1a275b485496dd3929bca388c4b5e31f7aaa0
    hashSequence: 0000000000000000000000000000000000000000000000000000000000000000
    outpoint:     36641869ca081e70f394c6948e8af409e18b619df2ed74aa106c1ca29787b96e01000000
    scriptCode:   cf56210307b8ae49ac90a048e9b53357a2354b3334e9c8bee813ecb98e99a7e07e8c3ba32103b28f0c28bfab54554ae8c658ac5c3e0ce6e79ad336331f78c428dd43eea8449b21034b8113d703413d57761b8b9781957b8c0ac1dfe69f492580ca4195f50376ba4a21033400f6afecb833092a9a21cfdf1ed1376e58c5d1f47de74683123987e967a8f42103a6d48b1131e94ba04d9737d61acdaa1322008af9602b3b14862c07a1789aac162102d8b661b0b3302ee2f162b09e07a55ad5dfbe673a9f01d9f0c19617681024306b56ae
    amount:       b168de3a00000000
    nSequence:    ffffffff
    hashOutputs:  9efe0c13a6b16c14a41b04ebe6a63f419bdacb2f8705b494a43063ca3cd4f708
    nLockTime:    00000000
    nHashType:    03000000
  sigHash:        1e1f1c303dc025bd664acb72e583e933fae4cff9148bf78c157d1e8f78530aea
  public key:     034b8113d703413d57761b8b9781957b8c0ac1dfe69f492580ca4195f50376ba4a
  signature:      3044022059ebf56d98010a932cf8ecfec54c48e6139ed6adb0728c09cbe1e4fa0915302e022007cd986c8fa870ff5d2b3a89139c9fe7e499259875357e20fcbb15571c76795403
  
  hash preimage for ALL|ANYONECANPAY: 010000000000000000000000000000000000000000000000000000000000000000000000000000000000000000000000000000000000000000000000000000000000000036641869ca081e70f394c6948e8af409e18b619df2ed74aa106c1ca29787b96e01000000cf56210307b8ae49ac90a048e9b53357a2354b3334e9c8bee813ecb98e99a7e07e8c3ba32103b28f0c28bfab54554ae8c658ac5c3e0ce6e79ad336331f78c428dd43eea8449b21034b8113d703413d57761b8b9781957b8c0ac1dfe69f492580ca4195f50376ba4a21033400f6afecb833092a9a21cfdf1ed1376e58c5d1f47de74683123987e967a8f42103a6d48b1131e94ba04d9737d61acdaa1322008af9602b3b14862c07a1789aac162102d8b661b0b3302ee2f162b09e07a55ad5dfbe673a9f01d9f0c19617681024306b56aeb168de3a00000000ffffffffbc4d309071414bed932f98832b27b4d76dad7e6c1346f487a8fdbb8eb90307cc0000000081000000
    nVersion:     01000000
    hashPrevouts: 0000000000000000000000000000000000000000000000000000000000000000
    hashSequence: 0000000000000000000000000000000000000000000000000000000000000000
    outpoint:     36641869ca081e70f394c6948e8af409e18b619df2ed74aa106c1ca29787b96e01000000
    scriptCode:   cf56210307b8ae49ac90a048e9b53357a2354b3334e9c8bee813ecb98e99a7e07e8c3ba32103b28f0c28bfab54554ae8c658ac5c3e0ce6e79ad336331f78c428dd43eea8449b21034b8113d703413d57761b8b9781957b8c0ac1dfe69f492580ca4195f50376ba4a21033400f6afecb833092a9a21cfdf1ed1376e58c5d1f47de74683123987e967a8f42103a6d48b1131e94ba04d9737d61acdaa1322008af9602b3b14862c07a1789aac162102d8b661b0b3302ee2f162b09e07a55ad5dfbe673a9f01d9f0c19617681024306b56ae
    amount:       b168de3a00000000
    nSequence:    ffffffff
    hashOutputs:  bc4d309071414bed932f98832b27b4d76dad7e6c1346f487a8fdbb8eb90307cc
    nLockTime:    00000000
    nHashType:    81000000
  sigHash:        2a67f03e63a6a422125878b40b82da593be8d4efaafe88ee528af6e5a9955c6e
  public key:     033400f6afecb833092a9a21cfdf1ed1376e58c5d1f47de74683123987e967a8f4
  signature:      3045022100fbefd94bd0a488d50b79102b5dad4ab6ced30c4069f1eaa69a4b5a763414067e02203156c6a5c9cf88f91265f5a942e96213afae16d83321c8b31bb342142a14d16381
  
  hash preimage for NONE|ANYONECANPAY: 010000000000000000000000000000000000000000000000000000000000000000000000000000000000000000000000000000000000000000000000000000000000000036641869ca081e70f394c6948e8af409e18b619df2ed74aa106c1ca29787b96e01000000cf56210307b8ae49ac90a048e9b53357a2354b3334e9c8bee813ecb98e99a7e07e8c3ba32103b28f0c28bfab54554ae8c658ac5c3e0ce6e79ad336331f78c428dd43eea8449b21034b8113d703413d57761b8b9781957b8c0ac1dfe69f492580ca4195f50376ba4a21033400f6afecb833092a9a21cfdf1ed1376e58c5d1f47de74683123987e967a8f42103a6d48b1131e94ba04d9737d61acdaa1322008af9602b3b14862c07a1789aac162102d8b661b0b3302ee2f162b09e07a55ad5dfbe673a9f01d9f0c19617681024306b56aeb168de3a00000000ffffffff00000000000000000000000000000000000000000000000000000000000000000000000082000000
    nVersion:     01000000
    hashPrevouts: 0000000000000000000000000000000000000000000000000000000000000000
    hashSequence: 0000000000000000000000000000000000000000000000000000000000000000
    outpoint:     36641869ca081e70f394c6948e8af409e18b619df2ed74aa106c1ca29787b96e01000000
    scriptCode:   cf56210307b8ae49ac90a048e9b53357a2354b3334e9c8bee813ecb98e99a7e07e8c3ba32103b28f0c28bfab54554ae8c658ac5c3e0ce6e79ad336331f78c428dd43eea8449b21034b8113d703413d57761b8b9781957b8c0ac1dfe69f492580ca4195f50376ba4a21033400f6afecb833092a9a21cfdf1ed1376e58c5d1f47de74683123987e967a8f42103a6d48b1131e94ba04d9737d61acdaa1322008af9602b3b14862c07a1789aac162102d8b661b0b3302ee2f162b09e07a55ad5dfbe673a9f01d9f0c19617681024306b56ae
    amount:       b168de3a00000000
    nSequence:    ffffffff
    hashOutputs:  0000000000000000000000000000000000000000000000000000000000000000
    nLockTime:    00000000
    nHashType:    82000000
  sigHash:        781ba15f3779d5542ce8ecb5c18716733a5ee42a6f51488ec96154934e2c890a
  public key:     03a6d48b1131e94ba04d9737d61acdaa1322008af9602b3b14862c07a1789aac16
  signature:      3045022100a5263ea0553ba89221984bd7f0b13613db16e7a70c549a86de0cc0444141a407022005c360ef0ae5a5d4f9f2f87a56c1546cc8268cab08c73501d6b3be2e1e1a8a0882
  
  hash preimage for SINGLE|ANYONECANPAY: 010000000000000000000000000000000000000000000000000000000000000000000000000000000000000000000000000000000000000000000000000000000000000036641869ca081e70f394c6948e8af409e18b619df2ed74aa106c1ca29787b96e01000000cf56210307b8ae49ac90a048e9b53357a2354b3334e9c8bee813ecb98e99a7e07e8c3ba32103b28f0c28bfab54554ae8c658ac5c3e0ce6e79ad336331f78c428dd43eea8449b21034b8113d703413d57761b8b9781957b8c0ac1dfe69f492580ca4195f50376ba4a21033400f6afecb833092a9a21cfdf1ed1376e58c5d1f47de74683123987e967a8f42103a6d48b1131e94ba04d9737d61acdaa1322008af9602b3b14862c07a1789aac162102d8b661b0b3302ee2f162b09e07a55ad5dfbe673a9f01d9f0c19617681024306b56aeb168de3a00000000ffffffff9efe0c13a6b16c14a41b04ebe6a63f419bdacb2f8705b494a43063ca3cd4f7080000000083000000
    nVersion:     01000000
    hashPrevouts: 0000000000000000000000000000000000000000000000000000000000000000
    hashSequence: 0000000000000000000000000000000000000000000000000000000000000000
    outpoint:     36641869ca081e70f394c6948e8af409e18b619df2ed74aa106c1ca29787b96e01000000
    scriptCode:   cf56210307b8ae49ac90a048e9b53357a2354b3334e9c8bee813ecb98e99a7e07e8c3ba32103b28f0c28bfab54554ae8c658ac5c3e0ce6e79ad336331f78c428dd43eea8449b21034b8113d703413d57761b8b9781957b8c0ac1dfe69f492580ca4195f50376ba4a21033400f6afecb833092a9a21cfdf1ed1376e58c5d1f47de74683123987e967a8f42103a6d48b1131e94ba04d9737d61acdaa1322008af9602b3b14862c07a1789aac162102d8b661b0b3302ee2f162b09e07a55ad5dfbe673a9f01d9f0c19617681024306b56ae
    amount:       b168de3a00000000
    nSequence:    ffffffff
    hashOutputs:  9efe0c13a6b16c14a41b04ebe6a63f419bdacb2f8705b494a43063ca3cd4f708
    nLockTime:    00000000
    nHashType:    83000000
  sigHash:        511e8e52ed574121fc1b654970395502128263f62662e076dc6baf05c2e6a99b
  public key:     02d8b661b0b3302ee2f162b09e07a55ad5dfbe673a9f01d9f0c19617681024306b
  signature:      30440220525406a1482936d5a21888260dc165497a90a15669636d8edca6b9fe490d309c022032af0c646a34a44d1f4576bf6a4a74b67940f8faa84c7df9abe12a01a11e2b4783
  
  The serialized signed transaction is: 0100000000010136641869ca081e70f394c6948e8af409e18b619df2ed74aa106c1ca29787b96e0100000023220020a16b5755f7f6f96dbd65f5f0d6ab9418b89af4b1f14a1bb8a09062c35f0dcb54ffffffff0200e9a435000000001976a914389ffce9cd9ae88dcc0631e88a821ffdbe9bfe2688acc0832f05000000001976a9147480a33f950689af511e6e84c138dbbd3c3ee41588ac080047304402206ac44d672dac41f9b00e28f4df20c52eeb087207e8d758d76d92c6fab3b73e2b0220367750dbbe19290069cba53d096f44530e4f98acaa594810388cf7409a1870ce01473044022068c7946a43232757cbdf9176f009a928e1cd9a1a8c212f15c1e11ac9f2925d9002205b75f937ff2f9f3c1246e547e54f62e027f64eefa2695578cc6432cdabce271502473044022059ebf56d98010a932cf8ecfec54c48e6139ed6adb0728c09cbe1e4fa0915302e022007cd986c8fa870ff5d2b3a89139c9fe7e499259875357e20fcbb15571c76795403483045022100fbefd94bd0a488d50b79102b5dad4ab6ced30c4069f1eaa69a4b5a763414067e02203156c6a5c9cf88f91265f5a942e96213afae16d83321c8b31bb342142a14d16381483045022100a5263ea0553ba89221984bd7f0b13613db16e7a70c549a86de0cc0444141a407022005c360ef0ae5a5d4f9f2f87a56c1546cc8268cab08c73501d6b3be2e1e1a8a08824730440220525406a1482936d5a21888260dc165497a90a15669636d8edca6b9fe490d309c022032af0c646a34a44d1f4576bf6a4a74b67940f8faa84c7df9abe12a01a11e2b4783cf56210307b8ae49ac90a048e9b53357a2354b3334e9c8bee813ecb98e99a7e07e8c3ba32103b28f0c28bfab54554ae8c658ac5c3e0ce6e79ad336331f78c428dd43eea8449b21034b8113d703413d57761b8b9781957b8c0ac1dfe69f492580ca4195f50376ba4a21033400f6afecb833092a9a21cfdf1ed1376e58c5d1f47de74683123987e967a8f42103a6d48b1131e94ba04d9737d61acdaa1322008af9602b3b14862c07a1789aac162102d8b661b0b3302ee2f162b09e07a55ad5dfbe673a9f01d9f0c19617681024306b56ae00000000


The new serialization format is described in BIP144 <ref>[[bip-0144.mediawiki|BIP144: Segregated Witness (Peer Services)]]</ref>
== Deployment ==

This proposal is deployed with Segregated Witness softfork (BIP 141) 

== Backward compatibility ==

As a soft fork, older software will continue to operate without modification. Non-upgraded nodes, however, will not see nor validate the witness data and will consider all witness programs, including the redefined sigops, as anyone-can-spend scripts.

== Reference Implementation ==

https://github.com/bitcoin/bitcoin/pull/7910

== References ==

<references>

== Copyright ==

This document is placed in the public domain.
