{
  "tx": "02000000000101000000000000000000000000000000000000000000000000000000000000000000000000000000000001a086010000000000000201bb21c1a328913bce52f1ed4a17cf00680f6c0f066a4a5c9f576db183ec422aa6a14f9900000000",
  "prevouts": [
    "a0860100000000002251205d11cca3ec3eab91d709ea18b2de550b82e3240ae0daad6c13c17037c6a3d09f"
  ],
  "index": 0,
  "flags": "P2SH,WITNESS,TAPROOT,EC_OPS",
  "comment": "insufficient stack items",
  "failure": {
    "scriptSig": "",
    "witness": [
      "bb",
      "c1a328913bce52f1ed4a17cf00680f6c0f066a4a5c9f576db183ec422aa6a14f99"
    ]
  }
},
