{
  "tx": "02000000000101000000000000000000000000000000000000000000000000000000000000000000000000000000000001a08601000000000000024620000000000000000000000000000000000000000000000000000000000000000200bc2102c6047f9441ed7d6d3045406e95c07cd85c778e4b8cef3ca7abac09b95c709ee58721c04e5d0761dac697652bc9e660749f9a56cbc8dc6eb7f5fcf4efef44ee960b976200000000",
  "prevouts": [
    "a086010000000000225120c534c653b0c46394875c8a377537a7fdd258d818ee1331e9ed804163d1dd8920"
  ],
  "index": 0,
  "flags": "P2SH,WITNESS,TAPROOT,EC_OPS",
  "comment": "multiply generator by scalar (empty point)",
  "success": {
    "scriptSig": "",
    "witness": [
      "20000000000000000000000000000000000000000000000000000000000000000200bc2102c6047f9441ed7d6d3045406e95c07cd85c778e4b8cef3ca7abac09b95c709ee587",
      "c04e5d0761dac697652bc9e660749f9a56cbc8dc6eb7f5fcf4efef44ee960b9762"
    ]
  }
},
