{
  "tx": "02000000000101000000000000000000000000000000000000000000000000000000000000000000000000000000000001a0860100000000000002682103d5a5c6797a56d30378dba0484493302b5d8dc02dff2f550568641036796da61221038d1eadc80f1d0bbf345f3c5202946a0b72e2c217242f5d8c3c8bc5d5467ff0acbb210284df99cc50d1ec93e9bc32c666325a389dd69a7f42777b8f1670ad66d2e622c98721c1f1dd3079589438fb556253fa5b1d685518fe0dcda0cfd1dd28b11608b0651b6500000000",
  "prevouts": [
    "a086010000000000225120bdccf1fb4466b26d66d764c61d1cabe8fcbb6598748b62fd64deb9260dde7f04"
  ],
  "index": 0,
  "flags": "P2SH,WITNESS,TAPROOT,EC_OPS",
  "comment": "add two 33-byte points",
  "success": {
    "scriptSig": "",
    "witness": [
      "2103d5a5c6797a56d30378dba0484493302b5d8dc02dff2f550568641036796da61221038d1eadc80f1d0bbf345f3c5202946a0b72e2c217242f5d8c3c8bc5d5467ff0acbb210284df99cc50d1ec93e9bc32c666325a389dd69a7f42777b8f1670ad66d2e622c987",
      "c1f1dd3079589438fb556253fa5b1d685518fe0dcda0cfd1dd28b11608b0651b65"
    ]
  }
},
