{
  "tx": "02000000000101000000000000000000000000000000000000000000000000000000000000000000000000000000000001a08601000000000000024420a8d2660f97eb8b320b3951a7adc1a32c54119bdb779287f2c87825459ce43e13be20a8d2660f97eb8b320b3951a7adc1a32c54119bdb779287f2c87825459ce43e138721c1d7c5c3f0ebdad5a1f1c785b8be132051541c68716b01bfb73e182bed0df0015500000000",
  "prevouts": [
    "a0860100000000002251201405d112d7a8a582327ac8647deb8b1aa3345538e200075d767eea88e3bbd6df"
  ],
  "index": 0,
  "flags": "P2SH,WITNESS,TAPROOT,EC_OPS",
  "comment": "extract x from 32-byte point",
  "failure": {
    "scriptSig": "",
    "witness": [
      "20a8d2660f97eb8b320b3951a7adc1a32c54119bdb779287f2c87825459ce43e13be20a8d2660f97eb8b320b3951a7adc1a32c54119bdb779287f2c87825459ce43e1387",
      "c1d7c5c3f0ebdad5a1f1c785b8be132051541c68716b01bfb73e182bed0df00155"
    ]
  }
},
