{
  "tx": "02000000000101000000000000000000000000000000000000000000000000000000000000000000000000000000000001a086010000000000000201be21c1e3b45dcd5b44dbad88ebcb4fbc80c8ac47b1a22fcfeda87557e3dbd60838460f00000000",
  "prevouts": [
    "a08601000000000022512017f2e29eca6ddd0b56d8ca75dc5ff3db8c401c37dcd330fad11e85cb7295ea73"
  ],
  "index": 0,
  "flags": "P2SH,WITNESS,TAPROOT,EC_OPS",
  "comment": "X_COORD: insufficient stack",
  "failure": {
    "scriptSig": "",
    "witness": [
      "be",
      "c1e3b45dcd5b44dbad88ebcb4fbc80c8ac47b1a22fcfeda87557e3dbd60838460f"
    ]
  }
},
