{
  "tx": "02000000000101000000000000000000000000000000000000000000000000000000000000000000000000000000000001a0860100000000000002462000000000000000000000000000000000000000000000000000000000000000002102a95d0d38d0d6519fe5c7a77b07bf6c367099d2d3a9b6a8da36251bcc2863e20fbc008721c0bc1bcd8620ab6eaee4bd999a33d287d907ea8a3aa00fb7f58dfabd2afb54485700000000",
  "prevouts": [
    "a08601000000000022512016c4722fac664bad20699b1b2673ea5898878d14fdd975adb052205c72ce898b"
  ],
  "index": 0,
  "flags": "P2SH,WITNESS,TAPROOT,EC_OPS",
  "comment": "multiply by zero (infinity)",
  "success": {
    "scriptSig": "",
    "witness": [
      "2000000000000000000000000000000000000000000000000000000000000000002102a95d0d38d0d6519fe5c7a77b07bf6c367099d2d3a9b6a8da36251bcc2863e20fbc0087",
      "c0bc1bcd8620ab6eaee4bd999a33d287d907ea8a3aa00fb7f58dfabd2afb544857"
    ]
  }
},
