{
  "tx": "02000000000101000000000000000000000000000000000000000000000000000000000000000000000000000000000001a08601000000000000024420d5a5c6797a56d30378dba0484493302b5d8dc02dff2f550568641036796da61221038d1eadc80f1d0bbf345f3c5202946a0b72e2c217242f5d8c3c8bc5d5467ff0acbb21c110945c301563e2c6cda22d73c860cb83dbba2856cf6a2f9eb2200a83b953d89c00000000",
  "prevouts": [
    "a086010000000000225120a287509e2698cfe262fa839890f7a513228dffbc8e156d0a65a9e7f48d685dfb"
  ],
  "index": 0,
  "flags": "P2SH,WITNESS,TAPROOT,EC_OPS",
  "comment": "reject 32-byte x-only input",
  "failure": {
    "scriptSig": "",
    "witness": [
      "20d5a5c6797a56d30378dba0484493302b5d8dc02dff2f550568641036796da61221038d1eadc80f1d0bbf345f3c5202946a0b72e2c217242f5d8c3c8bc5d5467ff0acbb",
      "c110945c301563e2c6cda22d73c860cb83dbba2856cf6a2f9eb2200a83b953d89c"
    ]
  }
},
