{
  "tx": "02000000000101000000000000000000000000000000000000000000000000000000000000000000000000000000000001a086010000000000000201be21c02c284a0fcd7c89fae0165d5dbe502ad504d29d396bf62fb366dd79feb0abb72800000000",
  "prevouts": [
    "a086010000000000225120be514e05bec6d4da7f6a35f165e32bad0c2b5d432ffd8c2ac3d3c28544c3f094"
  ],
  "index": 0,
  "flags": "P2SH,WITNESS,TAPROOT,EC_OPS",
  "comment": "extract x from infinity fails",
  "failure": {
    "scriptSig": "",
    "witness": [
      "be",
      "c02c284a0fcd7c89fae0165d5dbe502ad504d29d396bf62fb366dd79feb0abb728"
    ]
  }
},
