{
  "tx": "02000000000101000000000000000000000000000000000000000000000000000000000000000000000000000000000001a08601000000000000020254be21c18547ec06c7e4a7190ceda28bfa9d567a66c597bcaadbf8ffeb88e92b059dc85900000000",
  "prevouts": [
    "a086010000000000225120938771942788be4939998169ee5b961ce1d175a46f7836f1f0352deec8a9f5b0"
  ],
  "index": 0,
  "flags": "P2SH,WITNESS,TAPROOT,EC_OPS",
  "comment": "X_COORD: invalid point",
  "failure": {
    "scriptSig": "",
    "witness": [
      "54be",
      "c18547ec06c7e4a7190ceda28bfa9d567a66c597bcaadbf8ffeb88e92b059dc859"
    ]
  }
},
