{
  "tx": "02000000000101000000000000000000000000000000000000000000000000000000000000000000000000000000000001a0860100000000000002452103a8d2660f97eb8b320b3951a7adc1a32c54119bdb779287f2c87825459ce43e13be20a8d2660f97eb8b320b3951a7adc1a32c54119bdb779287f2c87825459ce43e138721c1e0c9660dc7ac5cfcdd53d7963cc7e278136398ec9a151a563ff2928ecb8f9c0500000000",
  "prevouts": [
    "a086010000000000225120f8b034227c5cde4357d50a45c2c62329475a5c2fb4b14b4002fc0f9c17b87d0f"
  ],
  "index": 0,
  "flags": "P2SH,WITNESS,TAPROOT,EC_OPS",
  "comment": "extract x from 33-byte point",
  "success": {
    "scriptSig": "",
    "witness": [
      "2103a8d2660f97eb8b320b3951a7adc1a32c54119bdb779287f2c87825459ce43e13be20a8d2660f97eb8b320b3951a7adc1a32c54119bdb779287f2c87825459ce43e1387",
      "c1e0c9660dc7ac5cfcdd53d7963cc7e278136398ec9a151a563ff2928ecb8f9c05"
    ]
  }
},
