{
  "tx": "02000000000101000000000000000000000000000000000000000000000000000000000000000000000000000000000001a0860100000000000002260202032102e2bb24c22b6c9cc29f9a54e7258735eb3f1ab2dab698fb69d75483349180058cbb21c0b775583e9cb1bb101da3740ec70e11680877f1e2bca699365216076e28b14b1000000000",
  "prevouts": [
    "a0860100000000002251201d8282cc92f08b535493d3207abe78d91aa3bee261ffdcab8a77c0a9fb91a3ae"
  ],
  "index": 0,
  "flags": "P2SH,WITNESS,TAPROOT,EC_OPS",
  "comment": "ADD: invalid point encoding length",
  "failure": {
    "scriptSig": "",
    "witness": [
      "0202032102e2bb24c22b6c9cc29f9a54e7258735eb3f1ab2dab698fb69d75483349180058cbb",
      "c0b775583e9cb1bb101da3740ec70e11680877f1e2bca699365216076e28b14b10"
    ]
  }
},
