{
  "tx": "02000000000101000000000000000000000000000000000000000000000000000000000000000000000000000000000001a0860100000000000002672000000000000000000000000000000000000000000000000000000000000000022102a95d0d38d0d6519fe5c7a77b07bf6c367099d2d3a9b6a8da36251bcc2863e20fbc2103519a934fadfca15c7fbb8b6bfb03464ee22bc594cecc6d842ce8089d99fe53718721c1e2d35660811d01bfe552a92937240da8420a1cbbb676a3df35a88686681e7fad00000000",
  "prevouts": [
    "a086010000000000225120982c493d24ce8a74e509b863a1a59926dbc7f438f0925da9122aaff17846871a"
  ],
  "index": 0,
  "flags": "P2SH,WITNESS,TAPROOT,EC_OPS",
  "comment": "multiply point by 2",
  "success": {
    "scriptSig": "",
    "witness": [
      "2000000000000000000000000000000000000000000000000000000000000000022102a95d0d38d0d6519fe5c7a77b07bf6c367099d2d3a9b6a8da36251bcc2863e20fbc2103519a934fadfca15c7fbb8b6bfb03464ee22bc594cecc6d842ce8089d99fe537187",
      "c1e2d35660811d01bfe552a92937240da8420a1cbbb676a3df35a88686681e7fad"
    ]
  }
},
