{
  "tx": "02000000000101000000000000000000000000000000000000000000000000000000000000000000000000000000000001a0860100000000000002472102585ef07fe51f6e81afe974b497e10b295e349c8229ec6ace9afc6c06876c75ae2102585ef07fe51f6e81afe974b497e10b295e349c8229ec6ace9afc6c06876c75aebb755121c156a774f1b7cac5e176e65c8b00567054cfaf95ca64d3ac7235e518aacc08ba6500000000",
  "prevouts": [
    "a08601000000000022512008834fd2db8dc5e2ba6c4e38482b56409a1560bb2e663e740d9023dcc049d814"
  ],
  "index": 0,
  "flags": "P2SH,WITNESS,TAPROOT,EC_OPS",
  "comment": "OP_EC_POINT_ADD consumes 10 units",
  "success": {
    "scriptSig": "",
    "witness": [
      "2102585ef07fe51f6e81afe974b497e10b295e349c8229ec6ace9afc6c06876c75ae2102585ef07fe51f6e81afe974b497e10b295e349c8229ec6ace9afc6c06876c75aebb7551",
      "c156a774f1b7cac5e176e65c8b00567054cfaf95ca64d3ac7235e518aacc08ba65"
    ]
  }
},
