{
  "tx": "02000000000101000000000000000000000000000000000000000000000000000000000000000000000000000000000001a086010000000000000201bd21c110c090416c08837952647beb78b735e2ea9757ed396daac0ba14a0bd3661b5bb00000000",
  "prevouts": [
    "a086010000000000225120a59ef4c3e0653f3f9d28b866457f8f533b7fe047e645744b7b3466cc234d4aca"
  ],
  "index": 0,
  "flags": "P2SH,WITNESS,TAPROOT,EC_OPS",
  "comment": "negate infinity",
  "failure": {
    "scriptSig": "",
    "witness": [
      "bd",
      "c110c090416c08837952647beb78b735e2ea9757ed396daac0ba14a0bd3661b5bb"
    ]
  }
},
