{
  "tx": "02000000000101000000000000000000000000000000000000000000000000000000000000000000000000000000000001a0860100000000000002682103d5a5c6797a56d30378dba0484493302b5d8dc02dff2f550568641036796da6122103d5a5c6797a56d30378dba0484493302b5d8dc02dff2f550568641036796da612bb210365c08a6b61c8a225760df455512496a3cce0d74f597ad8d5338ca1688aa53bc88721c1b841414474a073f8baf79d1e724081b765ea3a3f87a8780bdc69483a0a7c75c400000000",
  "prevouts": [
    "a086010000000000225120329376f19233d37860e6988a4ba29ebcdccd5813a97b16a85b59ab87069446a4"
  ],
  "index": 0,
  "flags": "P2SH,WITNESS,TAPROOT,EC_OPS",
  "comment": "add point to itself (point doubling)",
  "success": {
    "scriptSig": "",
    "witness": [
      "2103d5a5c6797a56d30378dba0484493302b5d8dc02dff2f550568641036796da6122103d5a5c6797a56d30378dba0484493302b5d8dc02dff2f550568641036796da612bb210365c08a6b61c8a225760df455512496a3cce0d74f597ad8d5338ca1688aa53bc887",
      "c1b841414474a073f8baf79d1e724081b765ea3a3f87a8780bdc69483a0a7c75c4"
    ]
  }
},
