{
  "tx": "02000000000101000000000000000000000000000000000000000000000000000000000000000000000000000000000001a0860100000000000002462102c45ad60752c449497980924aa8f602fad3ce0414fbff83b4d7e48f3d2b1e82d5bd2103c45ad60752c449497980924aa8f602fad3ce0414fbff83b4d7e48f3d2b1e82d58721c1501665cef6fec900f205abd7261eef0151bf6f6708f0720afd93b43d70f9fa5d00000000",
  "prevouts": [
    "a08601000000000022512048b2286b148876cba70b6e3efd0998b8ef8220362c926c6b5d74bec0e4d72add"
  ],
  "index": 0,
  "flags": "P2SH,WITNESS,TAPROOT,EC_OPS",
  "comment": "negate point",
  "success": {
    "scriptSig": "",
    "witness": [
      "2102c45ad60752c449497980924aa8f602fad3ce0414fbff83b4d7e48f3d2b1e82d5bd2103c45ad60752c449497980924aa8f602fad3ce0414fbff83b4d7e48f3d2b1e82d587",
      "c1501665cef6fec900f205abd7261eef0151bf6f6708f0720afd93b43d70f9fa5d"
    ]
  }
},
