{
  "tx": "02000000000101000000000000000000000000000000000000000000000000000000000000000000000000000000000001a0860100000000000002452102ffffffffffffffffffffffffffffffffffffffffffffffffffffffffffffffff21038d1eadc80f1d0bbf345f3c5202946a0b72e2c217242f5d8c3c8bc5d5467ff0acbb21c034f5f2a7ea908584632aba9320336fc99072c7d6d3c4ff3b4833849264cb2d4600000000",
  "prevouts": [
    "a086010000000000225120d16722acd2e0bcb47c83adc068d7d1988c0c9cd22fe60410a38acf6d720fda72"
  ],
  "index": 0,
  "flags": "P2SH,WITNESS,TAPROOT,EC_OPS",
  "comment": "invalid point - x coordinate too large",
  "failure": {
    "scriptSig": "",
    "witness": [
      "2102ffffffffffffffffffffffffffffffffffffffffffffffffffffffffffffffff21038d1eadc80f1d0bbf345f3c5202946a0b72e2c217242f5d8c3c8bc5d5467ff0acbb",
      "c034f5f2a7ea908584632aba9320336fc99072c7d6d3c4ff3b4833849264cb2d46"
    ]
  }
},
