{
  "tx": "02000000000101000000000000000000000000000000000000000000000000000000000000000000000000000000000001a0860100000000000002232102ffffffffffffffffffffffffffffffffffffffffffffffffffffffffffffffffbe21c1e5d3fbe9f737014a4092769380f8e1edf3bf3fc75804ecfe247bbb211ebef78700000000",
  "prevouts": [
    "a086010000000000225120bd088a352386d4c7020bf37a02964228a1a7220725ef997fd291686c9f6e99d3"
  ],
  "index": 0,
  "flags": "P2SH,WITNESS,TAPROOT,EC_OPS",
  "comment": "invalid point",
  "failure": {
    "scriptSig": "",
    "witness": [
      "2102ffffffffffffffffffffffffffffffffffffffffffffffffffffffffffffffffbe",
      "c1e5d3fbe9f737014a4092769380f8e1edf3bf3fc75804ecfe247bbb211ebef787"
    ]
  }
},
