{
  "tx": "02000000000101000000000000000000000000000000000000000000000000000000000000000000000000000000000001a08601000000000000026920000000000000000000000000000000000000000000000000000000000000000500bc210326c4dd2b3ed6cb114ac7981d958391f58f1d435a6800e4ba5fc4ec973d64c854bb21027e41f3468b33d03e76ed78f346c66644a7a31575dda359fe898520b9ed8245868721c19e76b08c79a7e0bb6ca20f7763ece21cf98e72efc326d26d1bf8d34c78b2c1f200000000",
  "prevouts": [
    "a08601000000000022512011209b083c36057f641cc93419015e0cb44c08b0b499fd54b26c4eaad0d3afc5"
  ],
  "index": 0,
  "flags": "P2SH,WITNESS,TAPROOT,EC_OPS",
  "comment": "Computing a Taproot Tweak (P + tweak*G)",
  "success": {
    "scriptSig": "",
    "witness": [
      "20000000000000000000000000000000000000000000000000000000000000000500bc210326c4dd2b3ed6cb114ac7981d958391f58f1d435a6800e4ba5fc4ec973d64c854bb21027e41f3468b33d03e76ed78f346c66644a7a31575dda359fe898520b9ed82458687",
      "c19e76b08c79a7e0bb6ca20f7763ece21cf98e72efc326d26d1bf8d34c78b2c1f2"
    ]
  }
},
