{
  "tx": "02000000000101000000000000000000000000000000000000000000000000000000000000000000000000000000000001a086010000000000000222200000000000000000000000000000000000000000000000000000000000000000bc21c0659db62321d339abc8c6105bd4e410e7902d018767a23b889140af7055c3175600000000",
  "prevouts": [
    "a0860100000000002251206dd3ba59a75cf0874457fbd7c7c355933cb9a74f8341a89c80d7f5d410c4ed7e"
  ],
  "index": 0,
  "flags": "P2SH,WITNESS,TAPROOT,EC_OPS",
  "comment": "MUL: insufficient stack",
  "failure": {
    "scriptSig": "",
    "witness": [
      "200000000000000000000000000000000000000000000000000000000000000000bc",
      "c0659db62321d339abc8c6105bd4e410e7902d018767a23b889140af7055c31756"
    ]
  }
},
