{
  "tx": "02000000000101000000000000000000000000000000000000000000000000000000000000000000000000000000000001a086010000000000000201bd21c00d1c97f90e0e927ffef5fd6cd8366a477be707b17a66d63d8ab5faf9c80df78800000000",
  "prevouts": [
    "a0860100000000002251209f48c70f375a1ab5ae6e1a4f42c3e0229dd7292d69dfa1d648619c83986083e1"
  ],
  "index": 0,
  "flags": "P2SH,WITNESS,TAPROOT,EC_OPS",
  "comment": "NEGATE: insufficient stack",
  "failure": {
    "scriptSig": "",
    "witness": [
      "bd",
      "c00d1c97f90e0e927ffef5fd6cd8366a477be707b17a66d63d8ab5faf9c80df788"
    ]
  }
},
