{
  "tx": "02000000000101000000000000000000000000000000000000000000000000000000000000000000000000000000000001a0860100000000000002fd72012000000000000000000000000000000000000000000000000000000000000000022102a1eaff599957c9061e19d828eb20aa91ac021ace6bc4a9d2056401b5c964aa076ebc756ebc756ebc756ebc756ebc756ebc756ebc756ebc756ebc756ebc756ebc756ebc756ebc756ebc756ebc756ebc756ebc756ebc756ebc756ebc756ebc756ebc756ebc756ebc756ebc756ebc756ebc756ebc756ebc756ebc756ebc756ebc756ebc756ebc756ebc756ebc756ebc756ebc756ebc756ebc756ebc756ebc756ebc756ebc756ebc756ebc756ebc756ebc756ebc756ebc756ebc756ebc756ebc756ebc756ebc756ebc756ebc756ebc756ebc756ebc756ebc756ebc756ebc756ebc756ebc756ebc756ebc756ebc756ebc756ebc756ebc756ebc756ebc756ebc756ebc756ebc756ebc756ebc756ebc756ebc756ebc756ebc756ebc756ebc756ebc756ebc756ebc756ebc756ebc756ebc756ebc756ebc756ebc756ebc756ebc756ebc756ebc756ebc756ebc756ebc75bc755121c03784b72912cce22aba765b3aa4713b732f7f96e08a294c1169b1c2f8adf05d2800000000",
  "prevouts": [
    "a0860100000000002251202fc3d1ac4749696f46815849941ca248b679f4b6a0563d6baf921ef68b97adbf"
  ],
  "index": 0,
  "flags": "P2SH,WITNESS,TAPROOT,EC_OPS",
  "comment": "MUL: budget exceeded",
  "failure": {
    "scriptSig": "",
    "witness": [
      "2000000000000000000000000000000000000000000000000000000000000000022102a1eaff599957c9061e19d828eb20aa91ac021ace6bc4a9d2056401b5c964aa076ebc756ebc756ebc756ebc756ebc756ebc756ebc756ebc756ebc756ebc756ebc756ebc756ebc756ebc756ebc756ebc756ebc756ebc756ebc756ebc756ebc756ebc756ebc756ebc756ebc756ebc756ebc756ebc756ebc756ebc756ebc756ebc756ebc756ebc756ebc756ebc756ebc756ebc756ebc756ebc756ebc756ebc756ebc756ebc756ebc756ebc756ebc756ebc756ebc756ebc756ebc756ebc756ebc756ebc756ebc756ebc756ebc756ebc756ebc756ebc756ebc756ebc756ebc756ebc756ebc756ebc756ebc756ebc756ebc756ebc756ebc756ebc756ebc756ebc756ebc756ebc756ebc756ebc756ebc756ebc756ebc756ebc756ebc756ebc756ebc756ebc756ebc756ebc756ebc756ebc756ebc756ebc756ebc756ebc756ebc756ebc756ebc756ebc756ebc756ebc75bc7551",
      "c03784b72912cce22aba765b3aa4713b732f7f96e08a294c1169b1c2f8adf05d28"
    ]
  }
},
