{
  "tx": "02000000000101000000000000000000000000000000000000000000000000000000000000000000000000000000000001a0860100000000000002472103d5a5c6797a56d30378dba0484493302b5d8dc02dff2f550568641036796da6122102d5a5c6797a56d30378dba0484493302b5d8dc02dff2f550568641036796da612bb008721c0f53d4ee246500cbd5bc5010fcd5955f91040d658a2761f1700d477cfd3dae4cd00000000",
  "prevouts": [
    "a086010000000000225120b213126b12c0c5bc9fea81869d4c98d8aeec2962bd79abccaf19cd8c9c5af6e7"
  ],
  "index": 0,
  "flags": "P2SH,WITNESS,TAPROOT,EC_OPS",
  "comment": "add point and its negation (infinity)",
  "success": {
    "scriptSig": "",
    "witness": [
      "2103d5a5c6797a56d30378dba0484493302b5d8dc02dff2f550568641036796da6122102d5a5c6797a56d30378dba0484493302b5d8dc02dff2f550568641036796da612bb0087",
      "c0f53d4ee246500cbd5bc5010fcd5955f91040d658a2761f1700d477cfd3dae4cd"
    ]
  }
},
