{
  "tx": "02000000000101000000000000000000000000000000000000000000000000000000000000000000000000000000000001a08601000000000000020200be21c09bf7d51d7b83593bc6b5b118e9d389f304f3b82a0ca5cfacf9f142236942d80500000000",
  "prevouts": [
    "a086010000000000225120691dfa3b2fdb8b0c32d8de04dfd6720dce6a2c48fbf93de7f7b1b028090c84ae"
  ],
  "index": 0,
  "flags": "P2SH,WITNESS,TAPROOT,EC_OPS",
  "comment": "X_COORD: point at infinity",
  "failure": {
    "scriptSig": "",
    "witness": [
      "00be",
      "c09bf7d51d7b83593bc6b5b118e9d389f304f3b82a0ca5cfacf9f142236942d805"
    ]
  }
},
