{
  "tx": "02000000000101000000000000000000000000000000000000000000000000000000000000000000000000000000000001a086010000000000000227030102032102a1eaff599957c9061e19d828eb20aa91ac021ace6bc4a9d2056401b5c964aa07bc21c1b9bad3201fdf6daa0a226bbd4bbf46580c50a46437c2ec43cd73620c08b7289400000000",
  "prevouts": [
    "a0860100000000002251201e0b312ef7af7256bf3ad9f2cad29323464473d44145d46c503140ddca0c5663"
  ],
  "index": 0,
  "flags": "P2SH,WITNESS,TAPROOT,EC_OPS",
  "comment": "MUL: invalid scalar length",
  "failure": {
    "scriptSig": "",
    "witness": [
      "030102032102a1eaff599957c9061e19d828eb20aa91ac021ace6bc4a9d2056401b5c964aa07bc",
      "c1b9bad3201fdf6daa0a226bbd4bbf46580c50a46437c2ec43cd73620c08b72894"
    ]
  }
},
