{
  "tx": "02000000000101000000000000000000000000000000000000000000000000000000000000000000000000000000000001a0860100000000000002fdcb032102a1eaff599957c9061e19d828eb20aa91ac021ace6bc4a9d2056401b5c964aa072102e2bb24c22b6c9cc29f9a54e7258735eb3f1ab2dab698fb69d75483349180058c6ebb756ebb756ebb756ebb756ebb756ebb756ebb756ebb756ebb756ebb756ebb756ebb756ebb756ebb756ebb756ebb756ebb756ebb756ebb756ebb756ebb756ebb756ebb756ebb756ebb756ebb756ebb756ebb756ebb756ebb756ebb756ebb756ebb756ebb756ebb756ebb756ebb756ebb756ebb756ebb756ebb756ebb756ebb756ebb756ebb756ebb756ebb756ebb756ebb756ebb756ebb756ebb756ebb756ebb756ebb756ebb756ebb756ebb756ebb756ebb756ebb756ebb756ebb756ebb756ebb756ebb756ebb756ebb756ebb756ebb756ebb756ebb756ebb756ebb756ebb756ebb756ebb756ebb756ebb756ebb756ebb756ebb756ebb756ebb756ebb756ebb756ebb756ebb756ebb756ebb756ebb756ebb756ebb756ebb756ebb756ebb756ebb756ebb756ebb756ebb756ebb756ebb756ebb756ebb756ebb756ebb756ebb756ebb756ebb756ebb756ebb756ebb756ebb756ebb756ebb756ebb756ebb756ebb756ebb756ebb756ebb756ebb756ebb756ebb756ebb756ebb756ebb756ebb756ebb756ebb756ebb756ebb756ebb756ebb756ebb756ebb756ebb756ebb756ebb756ebb756ebb756ebb756ebb756ebb756ebb756ebb756ebb756ebb756ebb756ebb756ebb756ebb756ebb756ebb756ebb756ebb756ebb756ebb756ebb756ebb756ebb756ebb756ebb756ebb756ebb756ebb756ebb756ebb756ebb756ebb756ebb756ebb756ebb756ebb756ebb756ebb756ebb756ebb756ebb756ebb756ebb756ebb756ebb756ebb756ebb756ebb756ebb756ebb756ebb756ebb756ebb756ebb756ebb756ebb756ebb756ebb756ebb756ebb756ebb756ebb756ebb756ebb756ebb756ebb756ebb756ebb756ebb756ebb756ebb756ebb756ebb756ebb756ebb756ebb756ebb756ebb756ebb756ebb756ebb756ebb756ebb756ebb756ebb756ebb756ebb756ebb756ebb756ebb756ebb756ebb756ebb756ebb756ebb756ebb756ebb756ebb756ebb756ebb756ebb756ebb756ebb756ebb756ebb756ebb756ebb756ebb756ebb756ebb756ebb756ebb756ebb756ebb756ebb756ebb756ebb756ebb756ebb756ebb756ebb756ebb756ebb756ebb756ebb756ebb756ebb756ebb756ebb756ebb756ebb756ebb756ebb756ebb756ebb756ebb756ebb756ebb756ebb756ebb756ebb756ebb756ebb756ebb756ebb756ebb756ebb756ebb756ebb756ebb756ebb756ebb756ebb756ebb756ebb756ebb756ebb756ebb756ebb756ebb756ebb756ebb75bb755121c19e0877d4fa6432093b3aca5f501129c1a87e9404b44cb489824b3c6e7f488fc200000000",
  "prevouts": [
    "a086010000000000225120595b5ed2b203b66290d4979a03af50060065777f1d4d3ab321a9ab9656a4ea2b"
  ],
  "index": 0,
  "flags": "P2SH,WITNESS,TAPROOT,EC_OPS",
  "comment": "ADD: budget exceeded",
  "failure": {
    "scriptSig": "",
    "witness": [
      "2102a1eaff599957c9061e19d828eb20aa91ac021ace6bc4a9d2056401b5c964aa072102e2bb24c22b6c9cc29f9a54e7258735eb3f1ab2dab698fb69d75483349180058c6ebb756ebb756ebb756ebb756ebb756ebb756ebb756ebb756ebb756ebb756ebb756ebb756ebb756ebb756ebb756ebb756ebb756ebb756ebb756ebb756ebb756ebb756ebb756ebb756ebb756ebb756ebb756ebb756ebb756ebb756ebb756ebb756ebb756ebb756ebb756ebb756ebb756ebb756ebb756ebb756ebb756ebb756ebb756ebb756ebb756ebb756ebb756ebb756ebb756ebb756ebb756ebb756ebb756ebb756ebb756ebb756ebb756ebb756ebb756ebb756ebb756ebb756ebb756ebb756ebb756ebb756ebb756ebb756ebb756ebb756ebb756ebb756ebb756ebb756ebb756ebb756ebb756ebb756ebb756ebb756ebb756ebb756ebb756ebb756ebb756ebb756ebb756ebb756ebb756ebb756ebb756ebb756ebb756ebb756ebb756ebb756ebb756ebb756ebb756ebb756ebb756ebb756ebb756ebb756ebb756ebb756ebb756ebb756ebb756ebb756ebb756ebb756ebb756ebb756ebb756ebb756ebb756ebb756ebb756ebb756ebb756ebb756ebb756ebb756ebb756ebb756ebb756ebb756ebb756ebb756ebb756ebb756ebb756ebb756ebb756ebb756ebb756ebb756ebb756ebb756ebb756ebb756ebb756ebb756ebb756ebb756ebb756ebb756ebb756ebb756ebb756ebb756ebb756ebb756ebb756ebb756ebb756ebb756ebb756ebb756ebb756ebb756ebb756ebb756ebb756ebb756ebb756ebb756ebb756ebb756ebb756ebb756ebb756ebb756ebb756ebb756ebb756ebb756ebb756ebb756ebb756ebb756ebb756ebb756ebb756ebb756ebb756ebb756ebb756ebb756ebb756ebb756ebb756ebb756ebb756ebb756ebb756ebb756ebb756ebb756ebb756ebb756ebb756ebb756ebb756ebb756ebb756ebb756ebb756ebb756ebb756ebb756ebb756ebb756ebb756ebb756ebb756ebb756ebb756ebb756ebb756ebb756ebb756ebb756ebb756ebb756ebb756ebb756ebb756ebb756ebb756ebb756ebb756ebb756ebb756ebb756ebb756ebb756ebb756ebb756ebb756ebb756ebb756ebb756ebb756ebb756ebb756ebb756ebb756ebb756ebb756ebb756ebb756ebb756ebb756ebb756ebb756ebb756ebb756ebb756ebb756ebb756ebb756ebb756ebb756ebb756ebb756ebb756ebb756ebb756ebb756ebb756ebb756ebb756ebb756ebb756ebb756ebb756ebb756ebb756ebb756ebb756ebb756ebb756ebb756ebb756ebb756ebb756ebb756ebb756ebb756ebb756ebb756ebb756ebb756ebb756ebb756ebb756ebb756ebb75bb7551",
      "c19e0877d4fa6432093b3aca5f501129c1a87e9404b44cb489824b3c6e7f488fc2"
    ]
  }
},
